:100000000C9443000C94E7030C945A040C945A0487
:100010000C945A040C945A040C945A040C945A04E8
:100020000C945A040C945A040C94B1010C9467017A
:100030000C945A040C945A040C945A040C945A04C8
:100040000C946D000C945A040C945A040C945A04A9
:100050000C945A04007100730008D100730075807D
:10006000007500770008D300770079800079007B65
:10007000800068006D0008C8006D00710008CD00A8
:100080006000680008C011241FBECFE5D8E0DEBFC5
:10009000CDBFE4E5F0E040E017C0B591A591359102
:1000A0002591059107FD0CC095918591EF01F92FE0
:1000B000E82F05900D92A217B307D9F7FE0104C0EF
:1000C0001D92A217B307E1F7E638F40731F70E9453
:0A00D00038020C946B00F894FFCF87
:1000DA001F920F920FB60F9211242F933F934F93B3
:1000EA005F936F937F938F939F93AF93BF93EF9396
:1000FA00FF93CF93DF93CDB7DEB76497DEBFCDBF53
:10010A000E944E04BC01660F771F660F771F860F89
:10011A00971FBC01990F880B990B0E94FD012FE6CE
:10012A0032E143E85FE30E9453040E942C04DC019D
:10013A00CB014AE0BE016F5F7F4F0E94F6038091B8
:10014A00790090917A00892BB1F048E650E067E097
:10015A0081E00E948103AE014F5F5F4F67E081E05B
:10016A000E94810380E090E00E94010410927A00CC
:10017A001092790017C048E650E067E080E00E94DC
:10018A008103AE014F5F5F4F67E080E00E94810309
:10019A0081E090E00E94010481E090E090937A006F
:1001AA00809379002FEF83ED90E3215080409040B7
:1001BA00E1F700C0000064960FB6F894DEBF0FBEE8
:1001CA00CDBFDF91CF91FF91EF91BF91AF919F91F9
:1001DA008F917F916F915F914F913F912F910F90E6
:0801EA000FBE0F901F90189545
:1001F2000E943A0458F00E94330440F029F45F3F11
:1002020029F00C94480451110C9442040C945704A4
:100212000E941D0368F39923B1F3552391F3951BB3
:10022200550BBB27AA2762177307840738F09F5F15
:100232005F4F220F331F441FAA1FA9F335D00E2E82
:100242003AF0E0E832D091505040E695001CCAF7EF
:100252002BD0FE2F29D0660F771F881FBB1F2617B2
:1002620037074807AB07B0E809F0BB0B802DBF0189
:10027200FF2793585F4F3AF09E3F510578F00C9458
:1002820048040C9442045F3FE4F3983ED4F386950D
:1002920077956795B795F7959F5FC9F7880F911D79
:1002A2009695879597F90895E1E0660F771F881F65
:1002B200BB1F621773078407BA0720F0621B730B18
:0C02C200840BBA0BEE1F88F7E09508953E
:1002CE001F920F920FB60F9211242F933F934F93BD
:1002DE005F936F937F938F939F93AF93BF93EF93A0
:1002EE00FF9380917700909178000196909378001B
:1002FE0080937700CE97E9F4809175009091760007
:10030E00892B49F08FEF90E00E945E0410927600E8
:10031E00109275000AC080E090E00E945E0481E0B9
:10032E0090E0909376008093750010927800109272
:10033E007700FF91EF91BF91AF919F918F917F9138
:10034E006F915F914F913F912F910F900FBE0F9034
:04035E001F9018953F
:100362001F920F920FB60F9211242F933F934F9328
:100372005F936F937F938F939F93AF93BF93EF930B
:10038200FF93809173009091740001969093740092
:1003920080937300CE97E9F480917100909172007E
:1003A200892B49F08FEF90E00E945E041092720058
:1003B200109271000AC080E090E00E945E0481E029
:1003C20090E09093720080937100109274001092EA
:1003D2007300FF91EF91BF91AF919F918F917F91A8
:1003E2006F915F914F913F912F910F900FBE0F90A0
:0403F2001F901895AB
:1003F600E89409C097FB3EF49095809570956195B9
:100406007F4F8F4F9F4F9923A9F0F92F96E9BB276E
:100416009395F695879577956795B795F111F8CFEA
:10042600FAF4BB0F11F460FF1BC06F5F7F4F8F4F55
:100436009F4F16C0882311F096E911C0772321F04B
:100446009EE8872F762F05C0662371F096E8862FE3
:1004560070E060E02AF09A95660F771F881FDAF73A
:0A046600880F9695879597F9089581
:1004700081E090E00E940B0481E090E00E9414046F
:100480002FEF87EA91E6215080409040E1F700C0CD
:10049000000040E862E083E00E949F020E94250481
:1004A0000E9460030E941D04789440E650E060E0E2
:1004B00080E00E9481034DE650E06DE080E00E9404
:1004C000810340E650E060E081E00E9481034DE658
:1004D00050E06DE081E00E9481030E945C04FFCF48
:1004E0000E94250388F09F5798F0B92F9927B7519C
:1004F000B0F0E1F0660F771F881F991F1AF0BA95C8
:10050000C9F714C0B13091F00E944104B1E00895E0
:100510000C944104672F782F8827B85F39F0B93FD2
:10052000CCF3869577956795B395D9F73EF490957A
:0E0530008095709561957F4F8F4F9F4F089576
:10053E0013BE19BE813051F028F0823059F083304D
:10054E0081F012C089B7816089BF0EC083B7806405
:10055E0083BF0AC083B7886083BF89B7826089BFB3
:10056E0003C083B7886483BF83B790E1699FB001EE
:10057E001124682B63BF4CBF83B7856083BF61E0D6
:0C058E0070E083E090E00E943F030895BD
:10059A009BB39F70282F207F922B9BBBC198C39A35
:1005AA0035E33A95F1F70000C398EFE3FFE131979D
:1005BA00F1F700C000002BB32F70F0E18F9FC0014C
:1005CA001124822B8BBBC39A35E03A95F1F70000D0
:1005DA00C3988FE39FE10197F1F700C000000895E7
:1005EA009BB39F70282F207F922B9BBBC19AC39AE3
:1005FA0035E33A95F1F70000C398EFE1F3E031975C
:10060A00F1F700C000002BB32F70F0E18F9FC001FB
:10061A001124822B8BBBC39A35E33A95F1F700007C
:10062A00C3988FE59DE60197F1F700C00000089591
:10063A0057FD9058440F551F59F05F3F71F0479589
:10064A00880F97FB991F61F09F3F79F0879508956E
:10065A00121613061406551FF2CF4695F1DF08C08D
:10066A00161617061806991FF1CF869571056105AA
:04067A000894089543
:10067E006115710581F061307105D1F447B321E048
:10068E0030E0B90102C0660F771F8A95E2F7CB0101
:10069E00842B87BB089547B321E030E0B90102C037
:1006AE00660F771F8A95E2F7CB018095842387BB6F
:0206BE0008959D
:1006C00080EF8ABB8FE087BBC2982FEF89EF90E065
:1006D000215080409040E1F700C0000083E30E9479
:1006E000CD0282E30E94CD0288E20E94CD028CE01E
:1006F0000E94CD0286E00E94CD0281E00E94CD02E0
:0207000008955A
:10070200CF93DF93EA01811108C0603178F4862F1C
:100712008F7080680E94CD0209C0813039F4603147
:1007220028F4862F8F70806C0E94CD02CE010E9429
:08073200D803DF91CF91089577
:10073A00BB27FB015527AA27880F991FAA1FA417B1
:10074A0010F0A41B83955051B9F7A05DAA3308F0A5
:10075A00A95DA193009779F7B111B1931192CB01D9
:04076A000C94C80320
:10076E00092E0394000C11F4882352F0BB0F40F4B1
:10077E00BF2B11F460FF04C06F5F7F4F8F4F9F4FF1
:02078E000895CC
:10079000DC01FC01672F71917723E1F7329704C0E8
:1007A0007C916D9370836291AE17BF07C8F3089573
:1007B000CF93DF93EC018881882331F021960E944A
:0E07C000F50289918111FBCFDF91CF91089551
:1007CE001F920F920FB60F9211248F938CB78C5EDF
:0E07DE008CBF8F910F900FBE0F901F9018953B
:1007EC00BB274A3031F4992322F4BDE290958195D0
:0607FC009F4F0C949E03C8
:100802008830910530F497B1987F97B997B1892BC9
:0408120087B9089505
:10081600009729F0019721F48FEF84BB089514BA4D
:02082600089533
:10082800009729F0019721F48FEF81BB089511BA41
:02083800089521
:10083A0017B880B7806480BF86B18F6A86B9089579
:0E084A0085B7836085BF8BB780648BBF089530
:0E0858000E9470026894B1110C94420408953D
:0E08660000240A9416161706180609060895AF
:0E08740000240A9412161306140605060895B1
:0E088200E894BB2766277727CB0197F90895E6
:0C08900097F99F6780E870E060E0089531
:0A089C0084B125B190E0922B08957D
:0808A6000E9409010C94B70344
:0608AE009FEF80EC0895AD
:0408B4000C940000A0
:0408B800369A0895CF
:0408BC0085BB08955B
:0808C000566F6C74203D20000E
:0508C8002020202000AB
:0408CD00206D560044
:0208D100010024
:0208D300010022
:00000001FF
